{
  "contractName": "Patientreport",
  "abi": [
    {
      "constant": true,
      "inputs": [
        {
          "name": "",
          "type": "uint256"
        }
      ],
      "name": "patients",
      "outputs": [
        {
          "name": "id",
          "type": "uint256"
        },
        {
          "name": "name",
          "type": "string"
        },
        {
          "name": "disease",
          "type": "string"
        },
        {
          "name": "RBCcount",
          "type": "uint256"
        },
        {
          "name": "bpbefore",
          "type": "uint256"
        },
        {
          "name": "bpafter",
          "type": "uint256"
        }
      ],
      "payable": false,
      "stateMutability": "view",
      "type": "function",
      "signature": "0x93119a83"
    },
    {
      "constant": true,
      "inputs": [],
      "name": "patientsCount",
      "outputs": [
        {
          "name": "",
          "type": "uint256"
        }
      ],
      "payable": false,
      "stateMutability": "view",
      "type": "function",
      "signature": "0xb6b1289d"
    },
    {
      "inputs": [],
      "payable": false,
      "stateMutability": "nonpayable",
      "type": "constructor",
      "signature": "constructor"
    },
    {
      "constant": false,
      "inputs": [
        {
          "name": "_patientId",
          "type": "uint256"
        },
        {
          "name": "_disease",
          "type": "string"
        },
        {
          "name": "_rbc",
          "type": "uint256"
        },
        {
          "name": "_bpbef",
          "type": "uint256"
        },
        {
          "name": "_bpaft",
          "type": "uint256"
        }
      ],
      "name": "patientVal",
      "outputs": [],
      "payable": false,
      "stateMutability": "nonpayable",
      "type": "function",
      "signature": "0x853325ae"
    }
  ],
  "bytecode": "0x608060405234801561001057600080fd5b5061005e6040805190810160405280600981526020017f50617469656e74203100000000000000000000000000000000000000000000008152506100b0640100000000026401000000009004565b6100ab6040805190810160405280600981526020017f50617469656e74203200000000000000000000000000000000000000000000008152506100b0640100000000026401000000009004565b61024b565b60016000815480929190600101919050555060c06040519081016040528060015481526020018281526020016040805190810160405280600481526020017f6e756c6c0000000000000000000000000000000000000000000000000000000081525081526020016000815260200160008152602001600081525060008060015481526020019081526020016000206000820151816000015560208201518160010190805190602001906101649291906101a6565b5060408201518160020190805190602001906101819291906101a6565b50606082015181600301556080820151816004015560a0820151816005015590505050565b828054600181600116156101000203166002900490600052602060002090601f016020900481019282601f106101e757805160ff1916838001178555610215565b82800160010185558215610215579182015b828111156102145782518255916020019190600101906101f9565b5b5090506102229190610226565b5090565b61024891905b8082111561024457600081600090555060010161022c565b5090565b90565b6105758061025a6000396000f3fe608060405260043610610057576000357c0100000000000000000000000000000000000000000000000000000000900463ffffffff168063853325ae1461005c57806393119a831461014c578063b6b1289d14610288575b600080fd5b34801561006857600080fd5b5061014a600480360360a081101561007f57600080fd5b8101908080359060200190929190803590602001906401000000008111156100a657600080fd5b8201836020820111156100b857600080fd5b803590602001918460018302840111640100000000831117156100da57600080fd5b91908080601f016020809104026020016040519081016040528093929190818152602001838380828437600081840152601f19601f8201169050808301925050505050505091929192908035906020019092919080359060200190929190803590602001909291905050506102b3565b005b34801561015857600080fd5b506101856004803603602081101561016f57600080fd5b8101908080359060200190929190505050610332565b604051808781526020018060200180602001868152602001858152602001848152602001838103835288818151815260200191508051906020019080838360005b838110156101e15780820151818401526020810190506101c6565b50505050905090810190601f16801561020e5780820380516001836020036101000a031916815260200191505b50838103825287818151815260200191508051906020019080838360005b8381101561024757808201518184015260208101905061022c565b50505050905090810190601f1680156102745780820380516001836020036101000a031916815260200191505b509850505050505050505060405180910390f35b34801561029457600080fd5b5061029d61049e565b6040518082815260200191505060405180910390f35b8360008087815260200190815260200160002060020190805190602001906102dc9291906104a4565b508260008087815260200190815260200160002060030181905550816000808781526020019081526020016000206004018190555080600080878152602001908152602001600020600501819055505050505050565b6000602052806000526040600020600091509050806000015490806001018054600181600116156101000203166002900480601f0160208091040260200160405190810160405280929190818152602001828054600181600116156101000203166002900480156103e45780601f106103b9576101008083540402835291602001916103e4565b820191906000526020600020905b8154815290600101906020018083116103c757829003601f168201915b505050505090806002018054600181600116156101000203166002900480601f0160208091040260200160405190810160405280929190818152602001828054600181600116156101000203166002900480156104825780601f1061045757610100808354040283529160200191610482565b820191906000526020600020905b81548152906001019060200180831161046557829003601f168201915b5050505050908060030154908060040154908060050154905086565b60015481565b828054600181600116156101000203166002900490600052602060002090601f016020900481019282601f106104e557805160ff1916838001178555610513565b82800160010185558215610513579182015b828111156105125782518255916020019190600101906104f7565b5b5090506105209190610524565b5090565b61054691905b8082111561054257600081600090555060010161052a565b5090565b9056fea165627a7a723058206f165e4d54673d955312f5c46bce488ca83ad98229a647f191165a45b17e80000029",
  "source": "pragma solidity ^0.5.0;\r\n\r\n\r\ncontract Patientreport {\r\n  struct Patient {\r\n         uint256  id;\r\n         string name;\r\n         string disease;\r\n         uint256 RBCcount;\r\n         uint256 bpbefore;\r\n         uint256 bpafter;\r\n     }\r\n\r\n     // Read/write candidates\r\n     mapping(uint256 => Patient) public patients;\r\n\r\n     // Store Candidates Count\r\n     uint public patientsCount;\r\n\r\n    constructor() public {\r\n        addPatient(\"Patient 1\");\r\n        addPatient(\"Patient 2\");\r\n  }\r\n  function addPatient (string memory  _name) internal  {\r\n          patientsCount ++;\r\n          patients[patientsCount] = Patient(patientsCount, _name, \"null\",0,0,0);\r\n      }\r\n      function patientVal (uint _patientId,string memory _disease,uint256  _rbc,uint256  _bpbef,uint256  _bpaft) public {\r\n\r\n           patients[_patientId].disease=_disease;\r\n            patients[_patientId].RBCcount=_rbc;\r\n             patients[_patientId].bpbefore=_bpbef;\r\n              patients[_patientId].bpafter=_bpaft;\r\n       }\r\n}\r\n",
  "sourcePath": "E:/Indra/medical/contracts/Patientreport.sol",
  "compiler": {
    "name": "solc",
    "version": "0.5.0+commit.1d4f565a.Emscripten.clang"
  },
  "schemaVersion": "3.0.3",
  "updatedAt": "2019-03-22T19:45:51.365Z",
  "devdoc": {
    "methods": {}
  },
  "userdoc": {
    "methods": {}
  }
}